:400000000080002011000000FD060000FD06000008B5044B1A6803F53F5302331A6000F075FB00BFFA46004010B5054C237833B9044B13B10448AFF300800123237010BD01
:400040006081FF1F0000000044160000084B10B51BB108490848AFF300800848036803B910BD074B002BFBD0BDE81040184700BF000000006481FF1F44160000C880FF1F1E
:400080000000000010B50C46002807DA4042C0B200F0B2FB002000F087FC05E0C0B200F0ABFB012000F080FC002C07DA6042C0B200F026FC002000F083FC10BDE0B200F071
:4000C0001FFC012000F07CFC10BD00BF08B500F019FD044B1B68C01A642801D9012008BD002008BD7C81FF1F2DE9704362B600F04DFC00F0C7FB00F06BFD00F02DFE0021B5
:400100000846FFF7BFFF002400F066FC00B9012400F0D4FB00B90024002C40F0448100F0BFFB20B900F0C4FB18B1062502E0062500E0002500F0B4FB20B900F0B9FB01282F
:4001400000D1022500F0ACFB012803D100F0B0FB00B9012500F0A4FB012806D100F0A8FB012802D1022D00D1052500F099FB012806D100F09DFB012802D1012D00D1042501
:4001800000F08EFB012801D100F092FB00F088FB012801D100F08CFB894B1B68FE2B07DD874A5268FE2A03DD854A9268FE2A11DC834AD268FE2A08DD814A1269FE2A06DD2F
:4001C0007F4A5269FE2A04DD04E0062502E0062500E00625FE2B07DD794B5B68FE2B03DD774B9B68FE2B0CDC754BDB68FF2B08DD734B1B69FF2B04DD714B5B69FF2B00DDF2
:40020000032500F0B7FD00F0C1FD80B26D4AA2FB0032831A02EB53035B0A03EB830303EB83039E00B6B206B90126632E00D96426062D00F2B480DFE805F004153657698BD0
:40024000AD0006EB8606300100F01CFF5AA3D3E9002300F07DFF01F08DF900B20146FFF711FFA0E03501731B980000F00BFF52A3D3E9002300F06CFF80468946AE1BB00047
:4002800000F000FF4CA3D3E9002300F061FF01F071F905B24046494601F06CF9294600B2FFF7F0FE7FE03501AB1B980000F0EAFE41A3D3E9002300F04BFF80468946761BC1
:4002C000B00000F0DFFE3CA3D3E9002300F040FF01F050F905B24046494601F04BF9294600B2FFF7CFFE5EE06FF04F0000FB06F000F0C8FE30A3D3E9002300F029FF01F027
:4003000039F900B20146FFF7BDFE4CE0C6EB0613980000F0B7FE28A3D3E9002300F018FF804689465A2000FB06F000F0ABFE22A3D3E9002300F00CFF01F01CF905B2404682
:40034000494601F017F9294600B2FFF79BFE2AE05A2000FB06F000F095FE17A3D3E9002300F0F6FE80468946C6EB0616B00000F089FE11A3D3E9002300F0EAFE01F0FAF8F1
:4003800005B24046494601F0F5F8294600B2FFF779FE08E000210846FFF774FE03E000210846FFF76FFEFFF791FE204600F01CFBAAE600BFAFF30080BA490C022B87863FA6
:4003C000CC80FF1F05104000FEE700BFF0B40022174611E050F82760F3B226F0FF0608E001EB420511F812406D78A5550132013BDBB2002BF4D10137232FEBD9F0BC704705
:4004000008B50A46002101F014F908BDF8B5204B1B78DBB21F4E3478E4B21F4F3D78EDB203F007011D4A11701B090132137044F00303337045F003033B707021184B197025
:4004400007220F331A70202211331A70402315480370023003700630037002300370124B1970212103331970022310490B7003310A700F4A137001220E4B1A700A2000F0C7
:40048000DBFA3D70347044220B4B1A70F8BD00BFCF010049F8460040F94600406E5800404D51004001590040205B0040285B0040585B00405B5B00407658004008B501F0A5
:4004C000ADF808BD38B513222E4B1A8018232E490B7002310A802D4A137004222C492D48FFF7ECFF02222C4B1A7008224FF040231A70032103F500731970284B1B78DBB262
:4005000027490B70274B1A8041F25122023B1A80002419250CE0244B1B7803F0010343EA440404F003044FF4F07000F049FC013D0DB1032CEFD115B90320FFF745FF1B4B3C
:400540004FF480721A8007221A70002218490A704820023108701A700222033B1A7004220A331A70134A137843F003031370013A137843F001031370013A137843F08003E6
:40058000137038BD8040004082400040864000407C050048004100400043004008010049A146004022420040254200400440004006400040A243004038B572B6374A1378DA
:4005C00043F00403137000240CE0354D630019194A0011462A44084691882858FFF710FF0134E4B2082CF0D92E494FF09040FFF7EDFE04212C48FFF703FF04222B492C484E
:40060000FFF75CFF2B4A137843F0020313701032137843F002031370274C237843F040032370A2F58632513A137843F010031370082222492248FFF741FF082221492248AE
:40064000FFF73CFF082221492148FFF737FF082220492148FFF732FF0A2220492048FFF72DFF08221F492048FFF728FF1F4A137843F0080313701E4D61232B70FFF722FF71
:4006800081232B7001221B4B1A70FFF7BFFE0E2221461948FFF712FF38BD00BFE8460040481600009000004800760040800500480876004003500140A04300404805004851
:4006C0000251004050050048125100405805004822510040600500484251004068050048505100407405004862510040224300400048004004000840B043004008B500F0AC
:4007000061FF03680C2B00D1FEE7FEE708B5104E104D16E029686B68AC68002204E051F8040B43F8040B0432A242F8D1E868002203E0002143F8041B04328242F9D11035D2
:40074000013E002EE6D100F043FFFFF7CDFCFEE701000000A416000008B5114A114B1A60114A136843F40073136000230AE0032B03D80E4A52F8231000E00D490D4A42F831
:40078000231001332F2BF2D90B4B1A780B4B1A70084A0B4B1A60FFF70FFF00F031F908BD0004FA050CED00E014ED00E000000000FD0600000080FF1FBC760040C080FF1FB2
:4007C00008ED00E0084A137843F0010313701032137843F00103137002F64D32137843F001031370704700BFA3430040014B1880704700BF044F0040014B1880704700BF67
:40080000064F0040014B1870704700BF034F004008B5194A137843F0020313700232137803F08F0343F010031370144B1A7802F0CF021A701A7842F030021A701A7802F092
:40084000F0021A701A7842F00F021A70FF20FFF7CDFF7F20FFF7D0FF0020FFF7D3FF084A137843F00103137002F65E32137843F00103137008BD00BF004F00400B4F00405F
:40088000A343004008B5054B1B7823B9FFF7C0FF0122024B1A70FFF795FF08BD8081FF1F024B1878C0F38010704700BF51510040014B1878C009704751510040024B1878E6
:4008C000C0F34000704700BF61510040084A137843F0020313701032137843F00203137002F65932137843F001031370704700BFA3430040014B1880704700BF104F004020
:40090000014B1880704700BF124F0040014B1870704700BF0F4F004008B5194A137843F0020313700232137803F08F0343F010031370144B1A7802F0CF021A701A7842F05F
:4009400030021A701A7802F0F0021A701A7842F00F021A70FF20FFF7CDFF7F20FFF7D0FF0020FFF7D3FF084A137843F00203137002F66A32137843F00103137008BD00BF3A
:400980000C4F0040174F0040A343004008B5054B1B7823B9FFF7C0FF0122024B1A70FFF795FF08BD8181FF1F044A137803F0FE0300F0010018431070704700BF4051004056
:4009C000044A137803F0F703C00000F0080018431070704740510040024B1878C0F30010704700BF61510040044A137803F0F703C00000F00800184310707047605100400D
:400A00000B4A7F2313708021517007E0DA0002F1804202F5F042013BDBB21370002BF5D1DB0003F1804303F5F04300221A707047E480FF1F01BE704708B5034B1B7A00FB4B
:400A400003F000F0BDF908BDEC80FF1F70B504460E46074B1D680F2802D90020FFF7EAFF04F00F0455F8240045F8246070BD00BF08ED00E070B504460E46074B1D681F2808
:400A800002D90020FFF7D6FF04F01F04103455F8240045F8246070BD08ED00E038B504460D46072902D90020FFF7C4FF1F2C02D90020FFF7BFFF04F01F0000F1604000F5E0
:400AC00064406D01EDB2057038BD00BF024A136843F002031360704710E000E008B5FFF7F5FF034A136843F00103136008BD00BF10E000E020F07F40014B1860704700BFAD
:400B000014E000E0024B186820F07F40704700BF18E000E0012805D1054A136843F0040313607047024A136823F004031360704710E000E0024B1868C0F30040704700BFB9
:400B400010E000E010B5FFF7F5FF01280BD107E0054B03EB84035B6803B19847013400E00024042CF4D910BD8481FF1F0022014B1A60704718E000E008B5002305E00F4A34
:400B800002EB8302002151600133042BF7D90C490F20FFF75BFF0120FFF7BCFF094BDB680948A0FB03308009FFF7A4FFFFF7DEFF4FF40042054B1A6008BD00BF8481FF1F77
:400BC000450B0000EC80FF1FD34D621000E100E008B5054B9B6923B9FFF7CEFF0122024B9A61FFF77BFF08BD8481FF1F08B50A280FD00C2802D0082806D102E04FF4805283
:400C000009E04FF4807206E00020FFF713FF002201E04FF480620021094B198042F2107303FB02F303F6C413064A82FB0302DB17C3EBE223044A1360044B198008BD00BF34
:400C4000A881FF1FAD8BDB68A481FF1FAA81FF1F38B500F0BDF804461E4A137843F0020313701032137843F0020313701A3A137843F0010313701032137843F001031370F4
:400C800002F5AA521A32137843F0030313700422114B1A70013B1A7802F0BF021A701A7842F003021A700E22053B1A700225A3F59753123B1D70094A137843F00803137028
:400CC0000A20FFF7B9FE064B1D60204600F084F838BD00BFAB4300400E5900402F5B004080E200E010B504460A280DD00C2802D0082804D101E0C42207E0442205E00020A6
:400D0000FFF798FEC42200E08422034B1A702046FFF76CFF10BD00BF0A59004008B5102000F042F807210120FFF7B8FE07490120FFF7A0FE064A137843F0060313700C2016
:400D4000FFF7D0FF0022034B1A8008BDA50D000009590040AC81FF1F08B5054B1B7823B9FFF7DCFF0122024B1A70FFF771FF08BDA081FF1F044B1A7802F0FB021A701A78A3
:400D800042F001021A70704708590040034B188880B2034B1B88C01A00B27047A25B0040AA81FF1F704700BF034B1A7800F0F80010431870704700BF024100400000000030
:400DC0000230800803D000BF01380046FCD17047EFF3108072B6704780F31088704700BF81F0004102E000BF83F0004330B54FEA41044FEA430594EA050F08BF90EA020F01
:400E00001FBF54EA000C55EA020C7FEA645C7FEA655C00F0E2804FEA5454D4EB5555B8BF6D420CDD2C4480EA020281EA030382EA000083EA010180EA020281EA0303362DD3
:400E400088BF30BD11F0004F4FEA01314FF4801C4CEA113102D0404261EB410113F0004F4FEA03334CEA133302D0524263EB430394EA050F00F0A780A4F10104D5F1200EDC
:400E80000DDB02FA0EFC22FA05F2801841F1000103FA0EF2801843FA05F359410EE0A5F120050EF1200E012A03FA0EFC28BF4CF0020C43FA05F3C01851EBE37101F00045F6
:400EC00007D54FF0000EDCF1000C7EEB00006EEB0101B1F5801F1BD3B1F5001F0CD349085FEA30004FEA3C0C04F101044FEA445212F5800F80F09A80BCF1004F08BF5FEA15
:400F0000500C50F1000041EB045141EA050130BD5FEA4C0C404141EB010111F4801FA4F10104E9D191F0000F04BF01460020B1FA81F308BF2033A3F10B03B3F120020CDAEC
:400F40000C3208DD02F1140CC2F10C0201FA0CF021FA02F10CE002F11402D8BFC2F1200C01FA02F120FA0CFCDCBF41EA0C019040E41AA2BF01EB0451294330BD6FEA0404FD
:400F80001F3C1CDA0C340EDC04F11404C4F1200220FA04F001FA02F340EA030021FA04F345EA030130BDC4F10C04C4F1200220FA02F001FA04F340EA0300294630BD21FA37
:400FC00004F0294630BD94F0000F83F4801306BF81F480110134013D4EE77FEA645C18BF7FEA655C29D094EA050F08BF90EA020F05D054EA000C04BF1946104630BD91EA8B
:40100000030F1EBF0021002030BD5FEA545C05D14000494128BF41F0004130BD14F580043CBF01F5801130BD01F0004545F0FE4141F470014FF0000030BD7FEA645C1ABF3A
:40104000194610467FEA655C1CBF0B46024650EA013406BF52EA033591EA030F41F4002130BD00BF90F0000F04BF0021704730B54FF4806404F132044FF000054FF0000101
:4010800050E700BF90F0000F04BF0021704730B54FF4806404F1320410F0004548BF40424FF000013EE700BF42004FEAE2014FEA31014FEA02701FBF12F07F4393F07F4F80
:4010C00081F06051704792F0000F14BF93F07F4F704730B54FF4607401F0004521F0004120E700BF50EA010208BF704730B54FF000050AE050EA010208BF704730B511F0F2
:40110000004502D5404261EB41014FF4806404F132045FEA915C3FF4DCAE4FF003025FEADC0C18BF03325FEADC0C18BF033202EBDC02C2F1200300FA03FC20FA02F001FADF
:4011400003FE40EA0E0021FA02F11444C1E600BF70B54FF0FF0C4CF4E06C1CEA11541DBF1CEA135594EA0C0F95EA0C0F00F0DEF82C4481EA030621EA4C5123EA4C5350EA4F
:40118000013518BF52EA033541F4801143F4801338D0A0FB02CE4FF00005E1FB02E506F00042E0FB03E54FF00006E1FB03569CF0000F18BF4EF0010EA4F1FF04B6F5007FAE
:4011C00064F5407404D25FEA4E0E6D4146EB060642EAC62141EA55514FEAC52040EA5E504FEACE2EB4F1FD0C88BFBCF5E06F1ED8BEF1004F08BF5FEA500E50F1000041EBA9
:40120000045170BD06F0004646EA010140EA020081EA0301B4EB5C04C2BFD4EB0C0541EA045170BD41F480114FF0000E013C00F3AB8014F1360FDEBF002001F0004170BD52
:40124000C4F10004203C35DA0C341BDC04F11404C4F1200500FA05F320FA04F001FA05F240EA020001F0004221F0004110EBD37021FA04F642EB06015EEA430E08BF20EA98
:40128000D37070BDC4F10C04C4F1200500FA04F320FA05F001FA04F240EA020001F0004110EBD37041F100015EEA430E08BF20EAD37070BDC4F1200500FA05F24EEA020E72
:4012C00020FA04F301FA05F243EA020321FA04F001F0004121FA04F220EA020000EBD3705EEA430E08BF20EAD37070BD94F0000F0FD101F00046400041EB010111F4801F97
:4013000008BF013CF7D041EA060195F0000F18BF704703F00046520043EB030313F4801F08BF013DF7D043EA0603704794EA0C0F0CEA135518BF95EA0C0F0CD050EA4106AB
:4013400018BF52EA4306D1D181EA030101F000414FF0000070BD50EA410606BF1046194652EA430619D094EA0C0F02D150EA013613D195EA0C0F05D152EA03361CBF104622
:4013800019460AD181EA030101F0004141F0FE4141F470014FF0000070BD41F0FE4141F4780170BD70B54FF0FF0C4CF4E06C1CEA11541DBF1CEA135594EA0C0F95EA0C0FA2
:4013C00000F0A7F8A4EB050481EA030E52EA03354FEA013100F088804FEA03334FF0805545EA131343EA12634FEA022245EA111545EA10654FEA00260EF000419D4208BF5F
:40140000964244F1FD0404F5407402D25B084FEA3202B61A65EB03055B084FEA32024FF480104FF4002CB6EB020E75EB030E22BFB61A754640EA0C005B084FEA3202B6EBDE
:40144000020E75EB030E22BFB61A754640EA5C005B084FEA3202B6EB020E75EB030E22BFB61A754640EA9C005B084FEA3202B6EB020E75EB030E22BFB61A754640EADC0071
:4014800055EA060E18D04FEA051545EA16754FEA06164FEAC30343EA52734FEAC2025FEA1C1CC0D111F4801F0BD141EA00014FF000004FF0004CB6E711F4801F04BF0143D1
:4014C0000020B4F1FD0C88BFBCF5E06F3FF6AFAEB5EB030C04BFB6EB020C5FEA500C50F1000041EB045170BD0EF0004E4EEA113114EB5C04C2BFD4EB0C0541EA045170BD6D
:4015000041F480114FF0000E013C90E645EA060E8DE60CEA135594EA0C0F08BF95EA0C0F3FF43BAF94EA0C0F0AD150EA01347FF434AF95EA0C0F7FF425AF104619462CE7D8
:4015400095EA0C0F06D152EA03353FF4FDAE1046194622E750EA410618BF52EA43067FF4C5AE50EA41047FF40DAF52EA43057FF4EBAE12E74FEA410212F5001215D211D58E
:401580006FF47873B3EB625212D94FEAC12343F0004343EA505311F0004F23FA02F018BF404270474FF00000704750EA013005D111F0004008BF6FF0004070474FF00000FA
:4015C000704700BF014B1868704700BF5C81FF1F0E4B70B51E460E4C0025E41AA410A54204D056F8253098470135F8E700F048F8084B094C1E46E41AA4100025A54204D005
:4016000056F8253098470135F8E770BD8C1600008C1600008C1600009416000010B5431E0A44914204D011F8014B03F8014FF8E710BD03460244934202D003F8011BFAE7C1
:401640007047000000000000004F00401800305100401000C05100401000F0510040100000000140001000140140000800400140000A004C0140000200500140200043008D
:40168000F8B500BFF8BC08BC9E4670474D00000059070000F8B500BFF8BC08BC9E46704729000000B8160000C880FF1F98000000500000000000000000000000FF03000038
:4016C000FF030000FF030000FF030000FF030000FF0300007F800000030000000000E02EC05D00001800000000366E010000000000000000000000000000000000000000F6
:401700000000000000000000000000007E16000000000000000000000000000000000000000000000000000000000000000000000000000000000000000000000000000015
:40174000000000000000000000000000FC80FF1F000000000000000000000000000000000000000000000000000000000000000000000000000000000000000000000000CF
:401780000000000000000000000000000000000000000000000000000000000000000000000000000000000000000000000000000000000000000000000000000000000029
:4017C00000000000000000000000000000000000000000000000000000000000000000000000000000000000000000000000000000000000000000000000000000000000E9
:4018000000000000000000000000000000000000000000000000000000000000000000000000000000000000000000000000000000000000000000000000000000000000A8
:401840000000000000000000000000000000000000000000000000000000000000000000000000000000000000000000000000000000000000000000000000000000000068
:020000040003F7
:0200000480007A
:40000000024F004004520040015B0040016400401E0001402C0101402A0201403603014022040140440501401906014035070140020B0140010D0140010F0140181401407B
:400040002F150140101601402E17014001190140041A0140051B0140144001400A410140074201400643014002440140034501400746014004470140074801400649014074
:40008000074C01400A4D014007500140025101400A361636205221142804290127848505580459045C115F018303860189028B01900191039503960198019C01A503A801A5
:4000C000A901AB02AD03AE01B201B501B702D401D804D904DB0CDC11DD10DF01000404040504084109080C420D080E160F04101012011314152016011F04251026802858CC
:400100002C022E143003310934083504360139203A013B113F115C805F407F0286808B048D10C024C2FDC4C7CA77CCC3CEA5D610DE10E61001200708090F1104150A170505
:40014000190D1B022002240229012B042E012F3030013110330C34023503372038203E10520753065804590C5B045C115D105F018A019202AC01B203B603D608D804D90414
:40018000DB04DC19DD90DF0100100524060108020D180E821180134016421704181019801D011E801F1025412718284029242D802F0831093502371839203A013D2A58804B
:4001C0006002652067046D286E206F067F0282108F10952097449D059E01A508A601A702A880C0E2C2F8C4B1CA37CCE3CEE5D608D808DE10580459045C115F0180048608F5
:4002000088018C02920293019440968098109A209E04A080A240A408A820AA10AB02AE01B301B4FFB502BE10D602D739D804D904DB0CDC10DD10DF0101080201050C0602B3
:40024000074809280C510D380E820F8010411304155417811F2024102528284029042C412D103001312834103504370139403A013B013C103D403F015E2067206D146F5157
:400280007502760A77087F0283088640878493209520962097049C409D069E43A250A302A508A601A708B080C0F5C2F6C4FDCAB3CCE7CEB9D620D840DE10E208E601E8204E
:4002C00002010302060207210D0211011B08210427102B042D0831203202331F360139083F04580459045C115F01D804D904DC11DF010090041006010750081009080B806E
:400300000C100D080E0211081202168017801D0C1E021F40250426022780285029082A802C412F683104320235883602371038103A013C903E8A3F808184820190109620D2
:4003400098109A0A9B509D049E019F80A360A601C0F3C2EEC495CAFBCCF3CEF5E208E601E440E08008010C01100116011A0124012C013401580459045C115F0187018B016B
:4003800095019B019D01A101AD01B701D804D904DC11DF0100100180020204140580068009080A040B800C400D080E02101114101B10240128512A802E802F4031083202CA
:4003C000330434103580370438143C143D083E0483108C019010938098109A80A10CA203C0F3C2AEC425CA9BCC73CE66E203E401EC20580459045C115F0188018C019001A1
:4004000094019801A601AC01B201D804D904DC11DF01001001800202030104100681081009080B800D080E0210011108141017011A2028512A802C102E802F483108320263
:400440003308358038103A013C103D0890109380962098509A81A10CA203AB48AC01AD08C0D3C2AEC435CAFBCC13CE65EA80EA80B902BF01D904DF01278083808780E411E0
:40048000EC20110416803220344038083E8054105A205C016140651085408C01C430CC30CE60D4C0D6C0D880E61081109104940896209C409D10A410AA20E620EE80800411
:4004C000940896209C40A410B104E6801A201C2096209C40A410C6308B80E0018F02A380E4021B08260883088608A382C608C80143024401A382D006208067046B04B040B2
:40050000C840D880DA408304870497049F04B040E2C01C029C01A380A401B001C601EA0150045202578080048E02A380B001D407E408EC0400020101080209010A02100225
:400540001A02000F100A00000000000000000400000B0B0000000000007F7F00000000000807070006707000C00000C0000000070700000012080800000020000100180138
:40058000000100000000000000000000000000000000000000000000000000000000000000000000000000000000000000000000000000000000000000000000000000003A
:4005C00000000000000000000000000000000000000000000000000000000000000000000000000000000000000000000000000000000000000000000000000000000000FB
:4006000000000000000000000000000000000000000000000000000000000000000000000000000000000000000000000000000000000000000000000000000000000000BA
:40064000000000000000000000000000000000000000000000000000000000000000000000000000000000000000000000000000000000000000000000000000000000007A
:40068000000000000000000000000000000000000000000000000000000000000000000000000000000000000000000000000000000000000000000000000000000000003A
:0200000490006A
:0400000000004005B7
:0200000490105A
:04000000BC90ACAF55
:0200000490303A
:02000000323795
:0200000490402A
:4000000000000000000000000000000000000000000000000000000000000000000000000000000000000000000000000000000000000000000000000000000000000000C0
:400040000000000000000000000000000000000000000000000000000000000000000000000000000000000000000000000000000000000000000000000000000000000080
:400080000000000000000000000000000000000000000000000000000000000000000000000000000000000000000000000000000000000000000000000000000000000040
:4000C0000000000000000000000000000000000000000000000000000000000000000000000000000000000000000000000000000000000000000000000000000000000000
:0200000490501A
:0C00000000012E12306900012E1C62A0CD
:00000001FF